{
  "contractName": "Ballot",
  "abi": [
    {
      "inputs": [
        {
          "internalType": "string",
          "name": "_title",
          "type": "string"
        },
        {
          "internalType": "string[]",
          "name": "_candidateList",
          "type": "string[]"
        }
      ],
      "stateMutability": "nonpayable",
      "type": "constructor"
    },
    {
      "inputs": [
        {
          "internalType": "address",
          "name": "",
          "type": "address"
        }
      ],
      "name": "alreadyVoted",
      "outputs": [
        {
          "internalType": "enum Ballot.VoterState",
          "name": "",
          "type": "uint8"
        }
      ],
      "stateMutability": "view",
      "type": "function",
      "constant": true
    },
    {
      "inputs": [
        {
          "internalType": "uint256",
          "name": "",
          "type": "uint256"
        }
      ],
      "name": "candidatesList",
      "outputs": [
        {
          "internalType": "string",
          "name": "name",
          "type": "string"
        },
        {
          "internalType": "uint256",
          "name": "numVotes",
          "type": "uint256"
        }
      ],
      "stateMutability": "view",
      "type": "function",
      "constant": true
    },
    {
      "inputs": [],
      "name": "chairperson",
      "outputs": [
        {
          "internalType": "address",
          "name": "",
          "type": "address"
        }
      ],
      "stateMutability": "view",
      "type": "function",
      "constant": true
    },
    {
      "inputs": [],
      "name": "state",
      "outputs": [
        {
          "internalType": "enum Ballot.VotingState",
          "name": "",
          "type": "uint8"
        }
      ],
      "stateMutability": "view",
      "type": "function",
      "constant": true
    },
    {
      "inputs": [],
      "name": "title",
      "outputs": [
        {
          "internalType": "string",
          "name": "",
          "type": "string"
        }
      ],
      "stateMutability": "view",
      "type": "function",
      "constant": true
    },
    {
      "inputs": [
        {
          "internalType": "address",
          "name": "_voter",
          "type": "address"
        }
      ],
      "name": "grantVoter",
      "outputs": [],
      "stateMutability": "nonpayable",
      "type": "function"
    },
    {
      "inputs": [],
      "name": "startBallot",
      "outputs": [],
      "stateMutability": "nonpayable",
      "type": "function"
    },
    {
      "inputs": [],
      "name": "endBallot",
      "outputs": [],
      "stateMutability": "nonpayable",
      "type": "function"
    },
    {
      "inputs": [
        {
          "internalType": "uint256",
          "name": "_choice",
          "type": "uint256"
        }
      ],
      "name": "vote",
      "outputs": [],
      "stateMutability": "nonpayable",
      "type": "function"
    },
    {
      "inputs": [],
      "name": "electionState",
      "outputs": [
        {
          "internalType": "string",
          "name": "",
          "type": "string"
        }
      ],
      "stateMutability": "view",
      "type": "function",
      "constant": true
    },
    {
      "inputs": [],
      "name": "candidatesNo",
      "outputs": [
        {
          "internalType": "uint256",
          "name": "no_",
          "type": "uint256"
        }
      ],
      "stateMutability": "view",
      "type": "function",
      "constant": true
    },
    {
      "inputs": [
        {
          "internalType": "uint256",
          "name": "_id",
          "type": "uint256"
        }
      ],
      "name": "nthCandidate",
      "outputs": [
        {
          "internalType": "string",
          "name": "",
          "type": "string"
        }
      ],
      "stateMutability": "view",
      "type": "function",
      "constant": true
    },
    {
      "inputs": [
        {
          "internalType": "uint256",
          "name": "_id",
          "type": "uint256"
        }
      ],
      "name": "nthNoVotes",
      "outputs": [
        {
          "internalType": "uint256",
          "name": "",
          "type": "uint256"
        }
      ],
      "stateMutability": "view",
      "type": "function",
      "constant": true
    }
  ],
  "bytecode": "0x60806040523480156200001157600080fd5b5060405162001897380380620018978339818101604052810190620000379190620004bc565b81600190805190602001906200004f92919062000173565b50336000806101000a81548173ffffffffffffffffffffffffffffffffffffffff021916908373ffffffffffffffffffffffffffffffffffffffff16021790555060005b81518110156200013c5760026040518060400160405280848481518110620000c057620000bf62000541565b5b602002602001015181526020016000815250908060018154018082558091505060019003906000526020600020906002020160009091909190915060008201518160000190805190602001906200011992919062000173565b5060208201518160010155505080806200013390620005a9565b91505062000093565b506000600460006101000a81548160ff02191690836002811115620001665762000165620005f6565b5b0217905550505062000689565b828054620001819062000654565b90600052602060002090601f016020900481019282620001a55760008555620001f1565b82601f10620001c057805160ff1916838001178555620001f1565b82800160010185558215620001f1579182015b82811115620001f0578251825591602001919060010190620001d3565b5b50905062000200919062000204565b5090565b5b808211156200021f57600081600090555060010162000205565b5090565b6000604051905090565b600080fd5b600080fd5b600080fd5b600080fd5b6000601f19601f8301169050919050565b7f4e487b7100000000000000000000000000000000000000000000000000000000600052604160045260246000fd5b6200028c8262000241565b810181811067ffffffffffffffff82111715620002ae57620002ad62000252565b5b80604052505050565b6000620002c362000223565b9050620002d1828262000281565b919050565b600067ffffffffffffffff821115620002f457620002f362000252565b5b620002ff8262000241565b9050602081019050919050565b60005b838110156200032c5780820151818401526020810190506200030f565b838111156200033c576000848401525b50505050565b6000620003596200035384620002d6565b620002b7565b9050828152602081018484840111156200037857620003776200023c565b5b620003858482856200030c565b509392505050565b600082601f830112620003a557620003a462000237565b5b8151620003b784826020860162000342565b91505092915050565b600067ffffffffffffffff821115620003de57620003dd62000252565b5b602082029050602081019050919050565b600080fd5b60006200040b6200040584620003c0565b620002b7565b90508083825260208201905060208402830185811115620004315762000430620003ef565b5b835b818110156200047f57805167ffffffffffffffff8111156200045a576200045962000237565b5b8086016200046989826200038d565b8552602085019450505060208101905062000433565b5050509392505050565b600082601f830112620004a157620004a062000237565b5b8151620004b3848260208601620003f4565b91505092915050565b60008060408385031215620004d657620004d56200022d565b5b600083015167ffffffffffffffff811115620004f757620004f662000232565b5b62000505858286016200038d565b925050602083015167ffffffffffffffff81111562000529576200052862000232565b5b620005378582860162000489565b9150509250929050565b7f4e487b7100000000000000000000000000000000000000000000000000000000600052603260045260246000fd5b7f4e487b7100000000000000000000000000000000000000000000000000000000600052601160045260246000fd5b6000819050919050565b6000620005b6826200059f565b91507fffffffffffffffffffffffffffffffffffffffffffffffffffffffffffffffff8203620005eb57620005ea62000570565b5b600182019050919050565b7f4e487b7100000000000000000000000000000000000000000000000000000000600052602160045260246000fd5b7f4e487b7100000000000000000000000000000000000000000000000000000000600052602260045260246000fd5b600060028204905060018216806200066d57607f821691505b60208210810362000683576200068262000625565b5b50919050565b6111fe80620006996000396000f3fe608060405234801561001057600080fd5b50600436106100cf5760003560e01c80633a47cb601161008c5780634a79d50c116100665780634a79d50c146101da5780634c44ff3e146101f8578063c19d93fb14610228578063df2d5ec714610246576100cf565b80633a47cb6014610196578063452ddecc146101a057806345d42651146101aa576100cf565b80630121b93f146100d4578063054bae88146100f057806306d2ad401461010c5780630a29024a1461013c5780632280043d1461015a5780632e4176cf14610178575b600080fd5b6100ee60048036038101906100e99190610c00565b610277565b005b61010a60048036038101906101059190610c8b565b610457565b005b61012660048036038101906101219190610c8b565b610590565b6040516101339190610d2f565b60405180910390f35b6101446105b0565b6040516101519190610d59565b60405180910390f35b6101626105bd565b60405161016f9190610e0d565b60405180910390f35b6101806106ea565b60405161018d9190610e3e565b60405180910390f35b61019e61070e565b005b6101a861077b565b005b6101c460048036038101906101bf9190610c00565b610876565b6040516101d19190610d59565b60405180910390f35b6101e261092b565b6040516101ef9190610e0d565b60405180910390f35b610212600480360381019061020d9190610c00565b6109b9565b60405161021f9190610e0d565b60405180910390f35b610230610af6565b60405161023d9190610ea1565b60405180910390f35b610260600480360381019061025b9190610c00565b610b09565b60405161026e929190610ebc565b60405180910390f35b6001600281111561028b5761028a610cb8565b5b600460009054906101000a900460ff1660028111156102ad576102ac610cb8565b5b146102b757600080fd5b600160028111156102cb576102ca610cb8565b5b600360003373ffffffffffffffffffffffffffffffffffffffff1673ffffffffffffffffffffffffffffffffffffffff16815260200190815260200160002060009054906101000a900460ff16600281111561032a57610329610cb8565b5b1461036a576040517f08c379a000000000000000000000000000000000000000000000000000000000815260040161036190610f5e565b60405180910390fd5b60028054905081106103b1576040517f08c379a00000000000000000000000000000000000000000000000000000000081526004016103a890610fca565b60405180910390fd5b600281815481106103c5576103c4610fea565b5b906000526020600020906002020160010160008154809291906103e790611048565b91905055506002600360003373ffffffffffffffffffffffffffffffffffffffff1673ffffffffffffffffffffffffffffffffffffffff16815260200190815260200160002060006101000a81548160ff0219169083600281111561044f5761044e610cb8565b5b021790555050565b6000600281111561046b5761046a610cb8565b5b600460009054906101000a900460ff16600281111561048d5761048c610cb8565b5b1461049757600080fd5b60008054906101000a900473ffffffffffffffffffffffffffffffffffffffff1673ffffffffffffffffffffffffffffffffffffffff163373ffffffffffffffffffffffffffffffffffffffff1614610525576040517f08c379a000000000000000000000000000000000000000000000000000000000815260040161051c906110dc565b60405180910390fd5b6001600360008373ffffffffffffffffffffffffffffffffffffffff1673ffffffffffffffffffffffffffffffffffffffff16815260200190815260200160002060006101000a81548160ff0219169083600281111561058857610587610cb8565b5b021790555050565b60036020528060005260406000206000915054906101000a900460ff1681565b6000600280549050905090565b60606002808111156105d2576105d1610cb8565b5b600460009054906101000a900460ff1660028111156105f4576105f3610cb8565b5b03610636576040518060400160405280600881526020017f66696e697368656400000000000000000000000000000000000000000000000081525090506106e7565b6001600281111561064a57610649610cb8565b5b600460009054906101000a900460ff16600281111561066c5761066b610cb8565b5b036106ae576040518060400160405280600b81526020017f696e2070726f677265737300000000000000000000000000000000000000000081525090506106e7565b6040518060400160405280600b81526020017f6e6f74207374617274656400000000000000000000000000000000000000000081525090505b90565b60008054906101000a900473ffffffffffffffffffffffffffffffffffffffff1681565b6001600281111561072257610721610cb8565b5b600460009054906101000a900460ff16600281111561074457610743610cb8565b5b1461074e57600080fd5b6002600460006101000a81548160ff0219169083600281111561077457610773610cb8565b5b0217905550565b6000600281111561078f5761078e610cb8565b5b600460009054906101000a900460ff1660028111156107b1576107b0610cb8565b5b146107bb57600080fd5b60008054906101000a900473ffffffffffffffffffffffffffffffffffffffff1673ffffffffffffffffffffffffffffffffffffffff163373ffffffffffffffffffffffffffffffffffffffff1614610849576040517f08c379a0000000000000000000000000000000000000000000000000000000008152600401610840906110dc565b60405180910390fd5b6001600460006101000a81548160ff0219169083600281111561086f5761086e610cb8565b5b0217905550565b600060028081111561088b5761088a610cb8565b5b600460009054906101000a900460ff1660028111156108ad576108ac610cb8565b5b146108b757600080fd5b60028054905082106108fe576040517f08c379a00000000000000000000000000000000000000000000000000000000081526004016108f590611148565b60405180910390fd5b6002828154811061091257610911610fea565b5b9060005260206000209060020201600101549050919050565b6001805461093890611197565b80601f016020809104026020016040519081016040528092919081815260200182805461096490611197565b80156109b15780601f10610986576101008083540402835291602001916109b1565b820191906000526020600020905b81548152906001019060200180831161099457829003601f168201915b505050505081565b60606002808111156109ce576109cd610cb8565b5b600460009054906101000a900460ff1660028111156109f0576109ef610cb8565b5b146109fa57600080fd5b6002805490508210610a41576040517f08c379a0000000000000000000000000000000000000000000000000000000008152600401610a3890611148565b60405180910390fd5b60028281548110610a5557610a54610fea565b5b90600052602060002090600202016000018054610a7190611197565b80601f0160208091040260200160405190810160405280929190818152602001828054610a9d90611197565b8015610aea5780601f10610abf57610100808354040283529160200191610aea565b820191906000526020600020905b815481529060010190602001808311610acd57829003601f168201915b50505050509050919050565b600460009054906101000a900460ff1681565b60028181548110610b1957600080fd5b9060005260206000209060020201600091509050806000018054610b3c90611197565b80601f0160208091040260200160405190810160405280929190818152602001828054610b6890611197565b8015610bb55780601f10610b8a57610100808354040283529160200191610bb5565b820191906000526020600020905b815481529060010190602001808311610b9857829003601f168201915b5050505050908060010154905082565b600080fd5b6000819050919050565b610bdd81610bca565b8114610be857600080fd5b50565b600081359050610bfa81610bd4565b92915050565b600060208284031215610c1657610c15610bc5565b5b6000610c2484828501610beb565b91505092915050565b600073ffffffffffffffffffffffffffffffffffffffff82169050919050565b6000610c5882610c2d565b9050919050565b610c6881610c4d565b8114610c7357600080fd5b50565b600081359050610c8581610c5f565b92915050565b600060208284031215610ca157610ca0610bc5565b5b6000610caf84828501610c76565b91505092915050565b7f4e487b7100000000000000000000000000000000000000000000000000000000600052602160045260246000fd5b60038110610cf857610cf7610cb8565b5b50565b6000819050610d0982610ce7565b919050565b6000610d1982610cfb565b9050919050565b610d2981610d0e565b82525050565b6000602082019050610d446000830184610d20565b92915050565b610d5381610bca565b82525050565b6000602082019050610d6e6000830184610d4a565b92915050565b600081519050919050565b600082825260208201905092915050565b60005b83811015610dae578082015181840152602081019050610d93565b83811115610dbd576000848401525b50505050565b6000601f19601f8301169050919050565b6000610ddf82610d74565b610de98185610d7f565b9350610df9818560208601610d90565b610e0281610dc3565b840191505092915050565b60006020820190508181036000830152610e278184610dd4565b905092915050565b610e3881610c4d565b82525050565b6000602082019050610e536000830184610e2f565b92915050565b60038110610e6a57610e69610cb8565b5b50565b6000819050610e7b82610e59565b919050565b6000610e8b82610e6d565b9050919050565b610e9b81610e80565b82525050565b6000602082019050610eb66000830184610e92565b92915050565b60006040820190508181036000830152610ed68185610dd4565b9050610ee56020830184610d4a565b9392505050565b7f5468697320706572736f6e20616c726561647920766f746564206f7220646f6560008201527f73206e6f7420686176652074686520726967687420746f20766f746500000000602082015250565b6000610f48603c83610d7f565b9150610f5382610eec565b604082019050919050565b60006020820190508181036000830152610f7781610f3b565b9050919050565b7f5468657265206973206e6f2063686f69636520666f7220746869730000000000600082015250565b6000610fb4601b83610d7f565b9150610fbf82610f7e565b602082019050919050565b60006020820190508181036000830152610fe381610fa7565b9050919050565b7f4e487b7100000000000000000000000000000000000000000000000000000000600052603260045260246000fd5b7f4e487b7100000000000000000000000000000000000000000000000000000000600052601160045260246000fd5b600061105382610bca565b91507fffffffffffffffffffffffffffffffffffffffffffffffffffffffffffffffff820361108557611084611019565b5b600182019050919050565b7f4f6e6c7920746865206368616972706572736f6e20697320616c6c6f7765642e600082015250565b60006110c6602083610d7f565b91506110d182611090565b602082019050919050565b600060208201905081810360008301526110f5816110b9565b9050919050565b7f43616e64696461746520696e646578206f7574206f662072616e676500000000600082015250565b6000611132601c83610d7f565b915061113d826110fc565b602082019050919050565b6000602082019050818103600083015261116181611125565b9050919050565b7f4e487b7100000000000000000000000000000000000000000000000000000000600052602260045260246000fd5b600060028204905060018216806111af57607f821691505b6020821081036111c2576111c1611168565b5b5091905056fea264697066735822122071ea5bb5fca1a5a4c5a1f111c37a2c515c409094c8dd0477e07457c185f80e8364736f6c634300080d0033",
  "immutableReferences": {},
  "source": "// SPDX-License-Identifier: GPL-3.0\npragma solidity >=0.7.0 <0.9.0;\n\ncontract Ballot {\n    // * struct types\n    struct Candidate {\n        string name;\n        uint numVotes;\n    }\n\n    // * public variables\n    address public chairperson;\n    string public title;\n    Candidate[] public candidatesList;\n\n    enum VoterState {NotGranted, Granted, Voted}\n    mapping(address => VoterState) public alreadyVoted;\n\n    enum VotingState {Registered, Progress, Completed}\n    VotingState public state;\n\n    // * modifiers\n    // only chairperson can grant voters\n    modifier isChairperson(){\n        require(msg.sender == chairperson, \"Only the chairperson is allowed.\");\n        _;\n    }\n    // check for a valid voter\n    modifier canVote(){\n        require(alreadyVoted[msg.sender] == VoterState.Granted, \"This person already voted or does not have the right to vote\");\n        _;\n    }\n    // check if state is in progress\n    modifier inProgress(){\n        require(state == VotingState.Progress);\n        _;\n    }\n    // check if not started\n    modifier notStarted(){\n        require(state == VotingState.Registered);\n        _;\n    }\n    modifier finished() {\n        require(state == VotingState.Completed);\n        _;\n    }\n\n    // * Constructor\n    constructor(string memory _title, string[] memory _candidateList){\n        title = _title;\n        chairperson = msg.sender;\n        for(uint i = 0; i < _candidateList.length; i++){\n            candidatesList.push(Candidate({\n                name: _candidateList[i],\n                numVotes: 0\n            }));\n        }\n        state = VotingState.Registered;\n    }\n    // * functionalities for chairperson\n    function grantVoter(address _voter) public notStarted isChairperson {\n        alreadyVoted[_voter] = VoterState.Granted;\n    }\n\n    function startBallot() public notStarted isChairperson {\n        state = VotingState.Progress;\n    }\n\n    function endBallot() public inProgress {\n        state = VotingState.Completed;\n    }\n\n    // * functionalities for \n\n    function vote(uint _choice) public inProgress canVote {\n        // * check if the choice is in the candidacy list\n        require(_choice < candidatesList.length, \"There is no choice for this\");\n        // * add vote\n        candidatesList[_choice].numVotes++;\n        alreadyVoted[msg.sender] = VoterState.Voted;\n    }\n\n    function electionState() public view returns (string memory) {\n        if (state == VotingState.Completed)\n            return \"finished\";\n        if (state == VotingState.Progress)\n            return \"in progress\";\n        else\n            return \"not started\";\n    }\n\n    function candidatesNo() public view returns (uint no_) {\n        no_ = candidatesList.length;\n    }\n\n    // * at the end of balloot\n\n    function nthCandidate(uint _id) public view finished returns (string memory) {\n        require(_id < candidatesList.length, \"Candidate index out of range\");\n        return candidatesList[_id].name;\n    }\n\n    function nthNoVotes(uint _id) public view finished returns (uint) {\n        require(_id < candidatesList.length, \"Candidate index out of range\");\n        return candidatesList[_id].numVotes;\n    }\n}",
  "sourcePath": "/home/alex/Documents/university/blockchain/Voting-System---Blockchain/contracts/Ballot.sol",
  "compiler": {
    "name": "solc",
    "version": "0.8.13+commit.abaa5c0e.Emscripten.clang"
  },
  "schemaVersion": "3.4.7",
  "updatedAt": "2022-04-18T18:56:06.045Z",
  "networkType": "ethereum",
  "devdoc": {
    "kind": "dev",
    "methods": {},
    "version": 1
  },
  "userdoc": {
    "kind": "user",
    "methods": {},
    "version": 1
  }
}