{
  "contractName": "Ballot",
  "abi": [
    {
      "inputs": [
        {
          "internalType": "string",
          "name": "_title",
          "type": "string"
        },
        {
          "internalType": "string[]",
          "name": "_candidateList",
          "type": "string[]"
        }
      ],
      "stateMutability": "nonpayable",
      "type": "constructor"
    },
    {
      "inputs": [
        {
          "internalType": "address",
          "name": "",
          "type": "address"
        }
      ],
      "name": "alreadyVoted",
      "outputs": [
        {
          "internalType": "enum Ballot.VoterState",
          "name": "",
          "type": "uint8"
        }
      ],
      "stateMutability": "view",
      "type": "function",
      "constant": true
    },
    {
      "inputs": [
        {
          "internalType": "uint256",
          "name": "",
          "type": "uint256"
        }
      ],
      "name": "candidatesList",
      "outputs": [
        {
          "internalType": "string",
          "name": "name",
          "type": "string"
        },
        {
          "internalType": "uint256",
          "name": "numVotes",
          "type": "uint256"
        }
      ],
      "stateMutability": "view",
      "type": "function",
      "constant": true
    },
    {
      "inputs": [],
      "name": "chairperson",
      "outputs": [
        {
          "internalType": "address",
          "name": "",
          "type": "address"
        }
      ],
      "stateMutability": "view",
      "type": "function",
      "constant": true
    },
    {
      "inputs": [],
      "name": "state",
      "outputs": [
        {
          "internalType": "enum Ballot.VotingState",
          "name": "",
          "type": "uint8"
        }
      ],
      "stateMutability": "view",
      "type": "function",
      "constant": true
    },
    {
      "inputs": [],
      "name": "title",
      "outputs": [
        {
          "internalType": "string",
          "name": "",
          "type": "string"
        }
      ],
      "stateMutability": "view",
      "type": "function",
      "constant": true
    },
    {
      "inputs": [
        {
          "internalType": "address",
          "name": "_voter",
          "type": "address"
        }
      ],
      "name": "grantVoter",
      "outputs": [],
      "stateMutability": "nonpayable",
      "type": "function"
    },
    {
      "inputs": [],
      "name": "startBallot",
      "outputs": [],
      "stateMutability": "nonpayable",
      "type": "function"
    },
    {
      "inputs": [],
      "name": "endBallot",
      "outputs": [],
      "stateMutability": "nonpayable",
      "type": "function"
    },
    {
      "inputs": [],
      "name": "checkOwner",
      "outputs": [
        {
          "internalType": "bool",
          "name": "",
          "type": "bool"
        }
      ],
      "stateMutability": "view",
      "type": "function",
      "constant": true
    },
    {
      "inputs": [
        {
          "internalType": "uint256",
          "name": "_choice",
          "type": "uint256"
        }
      ],
      "name": "vote",
      "outputs": [],
      "stateMutability": "nonpayable",
      "type": "function"
    },
    {
      "inputs": [],
      "name": "electionState",
      "outputs": [
        {
          "internalType": "string",
          "name": "",
          "type": "string"
        }
      ],
      "stateMutability": "view",
      "type": "function",
      "constant": true
    },
    {
      "inputs": [],
      "name": "candidatesNo",
      "outputs": [
        {
          "internalType": "uint256",
          "name": "no_",
          "type": "uint256"
        }
      ],
      "stateMutability": "view",
      "type": "function",
      "constant": true
    },
    {
      "inputs": [
        {
          "internalType": "uint256",
          "name": "_id",
          "type": "uint256"
        }
      ],
      "name": "nthCandidate",
      "outputs": [
        {
          "internalType": "string",
          "name": "",
          "type": "string"
        }
      ],
      "stateMutability": "view",
      "type": "function",
      "constant": true
    },
    {
      "inputs": [
        {
          "internalType": "uint256",
          "name": "_id",
          "type": "uint256"
        }
      ],
      "name": "nthNoVotes",
      "outputs": [
        {
          "internalType": "uint256",
          "name": "",
          "type": "uint256"
        }
      ],
      "stateMutability": "view",
      "type": "function",
      "constant": true
    }
  ],
  "bytecode": "0x60806040523480156200001157600080fd5b5060405162001d1c38038062001d1c8339818101604052810190620000379190620004bc565b81600190805190602001906200004f92919062000173565b50336000806101000a81548173ffffffffffffffffffffffffffffffffffffffff021916908373ffffffffffffffffffffffffffffffffffffffff16021790555060005b81518110156200013c5760026040518060400160405280848481518110620000c057620000bf62000541565b5b602002602001015181526020016000815250908060018154018082558091505060019003906000526020600020906002020160009091909190915060008201518160000190805190602001906200011992919062000173565b5060208201518160010155505080806200013390620005a9565b91505062000093565b506000600460006101000a81548160ff02191690836002811115620001665762000165620005f6565b5b0217905550505062000689565b828054620001819062000654565b90600052602060002090601f016020900481019282620001a55760008555620001f1565b82601f10620001c057805160ff1916838001178555620001f1565b82800160010185558215620001f1579182015b82811115620001f0578251825591602001919060010190620001d3565b5b50905062000200919062000204565b5090565b5b808211156200021f57600081600090555060010162000205565b5090565b6000604051905090565b600080fd5b600080fd5b600080fd5b600080fd5b6000601f19601f8301169050919050565b7f4e487b7100000000000000000000000000000000000000000000000000000000600052604160045260246000fd5b6200028c8262000241565b810181811067ffffffffffffffff82111715620002ae57620002ad62000252565b5b80604052505050565b6000620002c362000223565b9050620002d1828262000281565b919050565b600067ffffffffffffffff821115620002f457620002f362000252565b5b620002ff8262000241565b9050602081019050919050565b60005b838110156200032c5780820151818401526020810190506200030f565b838111156200033c576000848401525b50505050565b6000620003596200035384620002d6565b620002b7565b9050828152602081018484840111156200037857620003776200023c565b5b620003858482856200030c565b509392505050565b600082601f830112620003a557620003a462000237565b5b8151620003b784826020860162000342565b91505092915050565b600067ffffffffffffffff821115620003de57620003dd62000252565b5b602082029050602081019050919050565b600080fd5b60006200040b6200040584620003c0565b620002b7565b90508083825260208201905060208402830185811115620004315762000430620003ef565b5b835b818110156200047f57805167ffffffffffffffff8111156200045a576200045962000237565b5b8086016200046989826200038d565b8552602085019450505060208101905062000433565b5050509392505050565b600082601f830112620004a157620004a062000237565b5b8151620004b3848260208601620003f4565b91505092915050565b60008060408385031215620004d657620004d56200022d565b5b600083015167ffffffffffffffff811115620004f757620004f662000232565b5b62000505858286016200038d565b925050602083015167ffffffffffffffff81111562000529576200052862000232565b5b620005378582860162000489565b9150509250929050565b7f4e487b7100000000000000000000000000000000000000000000000000000000600052603260045260246000fd5b7f4e487b7100000000000000000000000000000000000000000000000000000000600052601160045260246000fd5b6000819050919050565b6000620005b6826200059f565b91507fffffffffffffffffffffffffffffffffffffffffffffffffffffffffffffffff8203620005eb57620005ea62000570565b5b600182019050919050565b7f4e487b7100000000000000000000000000000000000000000000000000000000600052602160045260246000fd5b7f4e487b7100000000000000000000000000000000000000000000000000000000600052602260045260246000fd5b600060028204905060018216806200066d57607f821691505b60208210810362000683576200068262000625565b5b50919050565b61168380620006996000396000f3fe608060405234801561001057600080fd5b50600436106100ea5760003560e01c8063452ddecc1161008c5780634c44ff3e116100665780634c44ff3e14610213578063c19d93fb14610243578063cdbce03d14610261578063df2d5ec71461027f576100ea565b8063452ddecc146101bb57806345d42651146101c55780634a79d50c146101f5576100ea565b80630a29024a116100c85780630a29024a146101575780632280043d146101755780632e4176cf146101935780633a47cb60146101b1576100ea565b80630121b93f146100ef578063054bae881461010b57806306d2ad4014610127575b600080fd5b61010960048036038101906101049190611075565b6102b0565b005b61012560048036038101906101209190611100565b610490565b005b610141600480360381019061013c9190611100565b61060a565b60405161014e91906111a4565b60405180910390f35b61015f61062a565b60405161016c91906111ce565b60405180910390f35b61017d610637565b60405161018a9190611282565b60405180910390f35b61019b610764565b6040516101a891906112b3565b60405180910390f35b6101b9610788565b005b6101c3610a29565b005b6101df60048036038101906101da9190611075565b610b24565b6040516101ec91906111ce565b60405180910390f35b6101fd610bd9565b60405161020a9190611282565b60405180910390f35b61022d60048036038101906102289190611075565b610c67565b60405161023a9190611282565b60405180910390f35b61024b610da4565b6040516102589190611316565b60405180910390f35b610269610db7565b604051610276919061134c565b60405180910390f35b61029960048036038101906102949190611075565b610e1e565b6040516102a7929190611367565b60405180910390f35b600160028111156102c4576102c361112d565b5b600460009054906101000a900460ff1660028111156102e6576102e561112d565b5b146102f057600080fd5b600160028111156103045761030361112d565b5b600360003373ffffffffffffffffffffffffffffffffffffffff1673ffffffffffffffffffffffffffffffffffffffff16815260200190815260200160002060009054906101000a900460ff1660028111156103635761036261112d565b5b036103a3576040517f08c379a000000000000000000000000000000000000000000000000000000000815260040161039a906113e3565b60405180910390fd5b60028054905081106103ea576040517f08c379a00000000000000000000000000000000000000000000000000000000081526004016103e19061144f565b60405180910390fd5b600281815481106103fe576103fd61146f565b5b90600052602060002090600202016001016000815480929190610420906114cd565b91905055506002600360003373ffffffffffffffffffffffffffffffffffffffff1673ffffffffffffffffffffffffffffffffffffffff16815260200190815260200160002060006101000a81548160ff021916908360028111156104885761048761112d565b5b021790555050565b600060028111156104a4576104a361112d565b5b600460009054906101000a900460ff1660028111156104c6576104c561112d565b5b146104d057600080fd5b60008054906101000a900473ffffffffffffffffffffffffffffffffffffffff1673ffffffffffffffffffffffffffffffffffffffff163373ffffffffffffffffffffffffffffffffffffffff161461055e576040517f08c379a000000000000000000000000000000000000000000000000000000000815260040161055590611561565b60405180910390fd5b610566610eda565b81816000019073ffffffffffffffffffffffffffffffffffffffff16908173ffffffffffffffffffffffffffffffffffffffff16815250506001600360008473ffffffffffffffffffffffffffffffffffffffff1673ffffffffffffffffffffffffffffffffffffffff16815260200190815260200160002060006101000a81548160ff021916908360028111156106015761060061112d565b5b02179055505050565b60036020528060005260406000206000915054906101000a900460ff1681565b6000600280549050905090565b606060028081111561064c5761064b61112d565b5b600460009054906101000a900460ff16600281111561066e5761066d61112d565b5b036106b0576040518060400160405280600881526020017f66696e69736865640000000000000000000000000000000000000000000000008152509050610761565b600160028111156106c4576106c361112d565b5b600460009054906101000a900460ff1660028111156106e6576106e561112d565b5b03610728576040518060400160405280600b81526020017f696e2070726f67726573730000000000000000000000000000000000000000008152509050610761565b6040518060400160405280600b81526020017f6e6f74207374617274656400000000000000000000000000000000000000000081525090505b90565b60008054906101000a900473ffffffffffffffffffffffffffffffffffffffff1681565b6001600281111561079c5761079b61112d565b5b600460009054906101000a900460ff1660028111156107be576107bd61112d565b5b146107c857600080fd5b6002600460006101000a81548160ff021916908360028111156107ee576107ed61112d565b5b021790555060005b600280549050811015610a2657600080808390505b60028054905081101561088457826002828154811061082d5761082c61146f565b5b906000526020600020906002020160010154111561087157600281815481106108595761085861146f565b5b90600052602060002090600202016001015492508391505b808061087c906114cd565b91505061080b565b5060006002848154811061089b5761089a61146f565b5b90600052602060002090600202016040518060400160405290816000820180546108c4906115b0565b80601f01602080910402602001604051908101604052809291908181526020018280546108f0906115b0565b801561093d5780601f106109125761010080835404028352916020019161093d565b820191906000526020600020905b81548152906001019060200180831161092057829003601f168201915b505050505081526020016001820154815250509050600282815481106109665761096561146f565b5b9060005260206000209060020201600285815481106109885761098761146f565b5b906000526020600020906002020160008201816000019080546109aa906115b0565b6109b5929190610f0a565b506001820154816001015590505080600283815481106109d8576109d761146f565b5b90600052602060002090600202016000820151816000019080519060200190610a02929190610f97565b50602082015181600101559050505050508080610a1e906114cd565b9150506107f6565b50565b60006002811115610a3d57610a3c61112d565b5b600460009054906101000a900460ff166002811115610a5f57610a5e61112d565b5b14610a6957600080fd5b60008054906101000a900473ffffffffffffffffffffffffffffffffffffffff1673ffffffffffffffffffffffffffffffffffffffff163373ffffffffffffffffffffffffffffffffffffffff1614610af7576040517f08c379a0000000000000000000000000000000000000000000000000000000008152600401610aee90611561565b60405180910390fd5b6001600460006101000a81548160ff02191690836002811115610b1d57610b1c61112d565b5b0217905550565b6000600280811115610b3957610b3861112d565b5b600460009054906101000a900460ff166002811115610b5b57610b5a61112d565b5b14610b6557600080fd5b6002805490508210610bac576040517f08c379a0000000000000000000000000000000000000000000000000000000008152600401610ba39061162d565b60405180910390fd5b60028281548110610bc057610bbf61146f565b5b9060005260206000209060020201600101549050919050565b60018054610be6906115b0565b80601f0160208091040260200160405190810160405280929190818152602001828054610c12906115b0565b8015610c5f5780601f10610c3457610100808354040283529160200191610c5f565b820191906000526020600020905b815481529060010190602001808311610c4257829003601f168201915b505050505081565b6060600280811115610c7c57610c7b61112d565b5b600460009054906101000a900460ff166002811115610c9e57610c9d61112d565b5b14610ca857600080fd5b6002805490508210610cef576040517f08c379a0000000000000000000000000000000000000000000000000000000008152600401610ce69061162d565b60405180910390fd5b60028281548110610d0357610d0261146f565b5b90600052602060002090600202016000018054610d1f906115b0565b80601f0160208091040260200160405190810160405280929190818152602001828054610d4b906115b0565b8015610d985780601f10610d6d57610100808354040283529160200191610d98565b820191906000526020600020905b815481529060010190602001808311610d7b57829003601f168201915b50505050509050919050565b600460009054906101000a900460ff1681565b60008060009054906101000a900473ffffffffffffffffffffffffffffffffffffffff1673ffffffffffffffffffffffffffffffffffffffff163373ffffffffffffffffffffffffffffffffffffffff1603610e165760019050610e1b565b600090505b90565b60028181548110610e2e57600080fd5b9060005260206000209060020201600091509050806000018054610e51906115b0565b80601f0160208091040260200160405190810160405280929190818152602001828054610e7d906115b0565b8015610eca5780601f10610e9f57610100808354040283529160200191610eca565b820191906000526020600020905b815481529060010190602001808311610ead57829003601f168201915b5050505050908060010154905082565b6040518060400160405280600073ffffffffffffffffffffffffffffffffffffffff168152602001600081525090565b828054610f16906115b0565b90600052602060002090601f016020900481019282610f385760008555610f86565b82601f10610f495780548555610f86565b82800160010185558215610f8657600052602060002091601f016020900482015b82811115610f85578254825591600101919060010190610f6a565b5b509050610f93919061101d565b5090565b828054610fa3906115b0565b90600052602060002090601f016020900481019282610fc5576000855561100c565b82601f10610fde57805160ff191683800117855561100c565b8280016001018555821561100c579182015b8281111561100b578251825591602001919060010190610ff0565b5b509050611019919061101d565b5090565b5b8082111561103657600081600090555060010161101e565b5090565b600080fd5b6000819050919050565b6110528161103f565b811461105d57600080fd5b50565b60008135905061106f81611049565b92915050565b60006020828403121561108b5761108a61103a565b5b600061109984828501611060565b91505092915050565b600073ffffffffffffffffffffffffffffffffffffffff82169050919050565b60006110cd826110a2565b9050919050565b6110dd816110c2565b81146110e857600080fd5b50565b6000813590506110fa816110d4565b92915050565b6000602082840312156111165761111561103a565b5b6000611124848285016110eb565b91505092915050565b7f4e487b7100000000000000000000000000000000000000000000000000000000600052602160045260246000fd5b6003811061116d5761116c61112d565b5b50565b600081905061117e8261115c565b919050565b600061118e82611170565b9050919050565b61119e81611183565b82525050565b60006020820190506111b96000830184611195565b92915050565b6111c88161103f565b82525050565b60006020820190506111e360008301846111bf565b92915050565b600081519050919050565b600082825260208201905092915050565b60005b83811015611223578082015181840152602081019050611208565b83811115611232576000848401525b50505050565b6000601f19601f8301169050919050565b6000611254826111e9565b61125e81856111f4565b935061126e818560208601611205565b61127781611238565b840191505092915050565b6000602082019050818103600083015261129c8184611249565b905092915050565b6112ad816110c2565b82525050565b60006020820190506112c860008301846112a4565b92915050565b600381106112df576112de61112d565b5b50565b60008190506112f0826112ce565b919050565b6000611300826112e2565b9050919050565b611310816112f5565b82525050565b600060208201905061132b6000830184611307565b92915050565b60008115159050919050565b61134681611331565b82525050565b6000602082019050611361600083018461133d565b92915050565b600060408201905081810360008301526113818185611249565b905061139060208301846111bf565b9392505050565b7f5468697320706572736f6e20616c726561647920766f7465642e000000000000600082015250565b60006113cd601a836111f4565b91506113d882611397565b602082019050919050565b600060208201905081810360008301526113fc816113c0565b9050919050565b7f5468657265206973206e6f2063686f69636520666f7220746869730000000000600082015250565b6000611439601b836111f4565b915061144482611403565b602082019050919050565b600060208201905081810360008301526114688161142c565b9050919050565b7f4e487b7100000000000000000000000000000000000000000000000000000000600052603260045260246000fd5b7f4e487b7100000000000000000000000000000000000000000000000000000000600052601160045260246000fd5b60006114d88261103f565b91507fffffffffffffffffffffffffffffffffffffffffffffffffffffffffffffffff820361150a5761150961149e565b5b600182019050919050565b7f4f6e6c7920746865206368616972706572736f6e20697320616c6c6f7765642e600082015250565b600061154b6020836111f4565b915061155682611515565b602082019050919050565b6000602082019050818103600083015261157a8161153e565b9050919050565b7f4e487b7100000000000000000000000000000000000000000000000000000000600052602260045260246000fd5b600060028204905060018216806115c857607f821691505b6020821081036115db576115da611581565b5b50919050565b7f43616e64696461746520696e646578206f7574206f662072616e676500000000600082015250565b6000611617601c836111f4565b9150611622826115e1565b602082019050919050565b600060208201905081810360008301526116468161160a565b905091905056fea26469706673582212208864b648f6f37e323a49878736e4738361860345dc7ab95703452564636b7f6f64736f6c634300080d0033",
  "immutableReferences": {},
  "source": "// SPDX-License-Identifier: GPL-3.0\npragma solidity >=0.7.0 <0.9.0;\n\ncontract Ballot {\n    // * struct types\n    struct Voter {\n        address identifier;\n        uint choice;\n    }\n    struct Candidate {\n        string name;\n        uint numVotes;\n    }\n\n    // * public variables\n    address public chairperson;\n    string public title;\n    Candidate[] public candidatesList;\n\n    enum VoterState {NotGranted, Granted, Voted}\n    mapping(address => VoterState) public alreadyVoted;\n\n    enum VotingState {Registered, Progress, Completed}\n    VotingState public state;\n\n    // * modifiers\n    // only chairperson can grant voters\n    modifier isChairperson(){\n        require(msg.sender == chairperson, \"Only the chairperson is allowed.\");\n        _;\n    }\n    // check for a valid voter\n    modifier canVote(){\n        require(alreadyVoted[msg.sender] != VoterState.Granted, \"This person already voted.\");\n        _;\n    }\n    // check if state is in progress\n    modifier inProgress(){\n        require(state == VotingState.Progress);\n        _;\n    }\n    // check if not started\n    modifier notStarted(){\n        require(state == VotingState.Registered);\n        _;\n    }\n    modifier finished() {\n        require(state == VotingState.Completed);\n        _;\n    }\n\n    // * Constructor\n    constructor(string memory _title, string[] memory _candidateList){\n        title = _title;\n        chairperson = msg.sender;\n        for(uint i = 0; i < _candidateList.length; i++){\n            candidatesList.push(Candidate({\n                name: _candidateList[i],\n                numVotes: 0\n            }));\n        }\n        state = VotingState.Registered;\n    }\n    // * functionalities for chairperson\n    function grantVoter(address _voter) public notStarted isChairperson {\n        Voter memory v;\n        v.identifier = _voter;\n        alreadyVoted[_voter] = VoterState.Granted;\n    }\n\n    function startBallot() public notStarted isChairperson {\n        state = VotingState.Progress;\n    }\n\n    function endBallot() public inProgress {\n        state = VotingState.Completed;\n\n        // * sort the candidates\n\n        for (uint i = 0; i < candidatesList.length; i++) {\n            uint max = 0;\n            uint id;\n            for(uint j = i; j < candidatesList.length; j++) {\n                if(candidatesList[j].numVotes > max) {\n                    max = candidatesList[j].numVotes;\n                    id = i;\n                }\n            }\n\n            Candidate memory aux = candidatesList[i];\n            candidatesList[i] = candidatesList[id];\n            candidatesList[id] = aux;\n        }\n    }\n\n    // * functionalities for \n\n    function checkOwner() public view returns (bool) {\n        if (msg.sender == chairperson) \n            return true;\n        return false;\n    }\n\n    function vote(uint _choice) public inProgress canVote {\n        // * check if the choice is in the candidacy list\n        require(_choice < candidatesList.length, \"There is no choice for this\");\n        // * add vote\n        candidatesList[_choice].numVotes++;\n        alreadyVoted[msg.sender] = VoterState.Voted;\n    }\n\n    function electionState() public view returns (string memory) {\n        if (state == VotingState.Completed)\n            return \"finished\";\n        if (state == VotingState.Progress)\n            return \"in progress\";\n        else\n            return \"not started\";\n    }\n\n    function candidatesNo() public view returns (uint no_) {\n        no_ = candidatesList.length;\n    }\n\n    // * at the end of balloot\n\n    function nthCandidate(uint _id) public view finished returns (string memory) {\n        require(_id < candidatesList.length, \"Candidate index out of range\");\n        return candidatesList[_id].name;\n    }\n\n    function nthNoVotes(uint _id) public view finished returns (uint) {\n        require(_id < candidatesList.length, \"Candidate index out of range\");\n        return candidatesList[_id].numVotes;\n    }\n}",
  "sourcePath": "/home/alex/Documents/university/blockchain/Voting-System---Blockchain/contracts/Ballot.sol",
  "compiler": {
    "name": "solc",
    "version": "0.8.13+commit.abaa5c0e.Emscripten.clang"
  },
  "schemaVersion": "3.4.7",
  "updatedAt": "2022-04-18T14:01:01.942Z",
  "networkType": "ethereum",
  "devdoc": {
    "kind": "dev",
    "methods": {},
    "version": 1
  },
  "userdoc": {
    "kind": "user",
    "methods": {},
    "version": 1
  }
}