{
  "contractName": "Ballot",
  "abi": [
    {
      "inputs": [
        {
          "internalType": "string",
          "name": "_title",
          "type": "string"
        },
        {
          "internalType": "string[]",
          "name": "_candidateList",
          "type": "string[]"
        }
      ],
      "stateMutability": "nonpayable",
      "type": "constructor"
    },
    {
      "inputs": [
        {
          "internalType": "address",
          "name": "",
          "type": "address"
        }
      ],
      "name": "alreadyVoted",
      "outputs": [
        {
          "internalType": "enum Ballot.VoterState",
          "name": "",
          "type": "uint8"
        }
      ],
      "stateMutability": "view",
      "type": "function",
      "constant": true
    },
    {
      "inputs": [
        {
          "internalType": "uint256",
          "name": "",
          "type": "uint256"
        }
      ],
      "name": "candidatesList",
      "outputs": [
        {
          "internalType": "string",
          "name": "name",
          "type": "string"
        },
        {
          "internalType": "uint256",
          "name": "numVotes",
          "type": "uint256"
        }
      ],
      "stateMutability": "view",
      "type": "function",
      "constant": true
    },
    {
      "inputs": [],
      "name": "chairperson",
      "outputs": [
        {
          "internalType": "address",
          "name": "",
          "type": "address"
        }
      ],
      "stateMutability": "view",
      "type": "function",
      "constant": true
    },
    {
      "inputs": [],
      "name": "state",
      "outputs": [
        {
          "internalType": "enum Ballot.VotingState",
          "name": "",
          "type": "uint8"
        }
      ],
      "stateMutability": "view",
      "type": "function",
      "constant": true
    },
    {
      "inputs": [],
      "name": "title",
      "outputs": [
        {
          "internalType": "string",
          "name": "",
          "type": "string"
        }
      ],
      "stateMutability": "view",
      "type": "function",
      "constant": true
    },
    {
      "inputs": [
        {
          "internalType": "address",
          "name": "_voter",
          "type": "address"
        }
      ],
      "name": "grantVoter",
      "outputs": [],
      "stateMutability": "nonpayable",
      "type": "function"
    },
    {
      "inputs": [],
      "name": "startBallot",
      "outputs": [],
      "stateMutability": "nonpayable",
      "type": "function"
    },
    {
      "inputs": [],
      "name": "endBallot",
      "outputs": [],
      "stateMutability": "nonpayable",
      "type": "function"
    },
    {
      "inputs": [
        {
          "internalType": "uint256",
          "name": "_choice",
          "type": "uint256"
        }
      ],
      "name": "vote",
      "outputs": [],
      "stateMutability": "nonpayable",
      "type": "function"
    },
    {
      "inputs": [],
      "name": "electionState",
      "outputs": [
        {
          "internalType": "string",
          "name": "",
          "type": "string"
        }
      ],
      "stateMutability": "view",
      "type": "function",
      "constant": true
    },
    {
      "inputs": [],
      "name": "candidatesNo",
      "outputs": [
        {
          "internalType": "uint256",
          "name": "no_",
          "type": "uint256"
        }
      ],
      "stateMutability": "view",
      "type": "function",
      "constant": true
    },
    {
      "inputs": [
        {
          "internalType": "uint256",
          "name": "_id",
          "type": "uint256"
        }
      ],
      "name": "nthCandidate",
      "outputs": [
        {
          "internalType": "string",
          "name": "",
          "type": "string"
        }
      ],
      "stateMutability": "view",
      "type": "function",
      "constant": true
    },
    {
      "inputs": [
        {
          "internalType": "uint256",
          "name": "_id",
          "type": "uint256"
        }
      ],
      "name": "nthNoVotes",
      "outputs": [
        {
          "internalType": "uint256",
          "name": "",
          "type": "uint256"
        }
      ],
      "stateMutability": "view",
      "type": "function",
      "constant": true
    }
  ],
  "bytecode": "0x60806040523480156200001157600080fd5b5060405162001c4638038062001c468339818101604052810190620000379190620004bc565b81600190805190602001906200004f92919062000173565b50336000806101000a81548173ffffffffffffffffffffffffffffffffffffffff021916908373ffffffffffffffffffffffffffffffffffffffff16021790555060005b81518110156200013c5760026040518060400160405280848481518110620000c057620000bf62000541565b5b602002602001015181526020016000815250908060018154018082558091505060019003906000526020600020906002020160009091909190915060008201518160000190805190602001906200011992919062000173565b5060208201518160010155505080806200013390620005a9565b91505062000093565b506000600460006101000a81548160ff02191690836002811115620001665762000165620005f6565b5b0217905550505062000689565b828054620001819062000654565b90600052602060002090601f016020900481019282620001a55760008555620001f1565b82601f10620001c057805160ff1916838001178555620001f1565b82800160010185558215620001f1579182015b82811115620001f0578251825591602001919060010190620001d3565b5b50905062000200919062000204565b5090565b5b808211156200021f57600081600090555060010162000205565b5090565b6000604051905090565b600080fd5b600080fd5b600080fd5b600080fd5b6000601f19601f8301169050919050565b7f4e487b7100000000000000000000000000000000000000000000000000000000600052604160045260246000fd5b6200028c8262000241565b810181811067ffffffffffffffff82111715620002ae57620002ad62000252565b5b80604052505050565b6000620002c362000223565b9050620002d1828262000281565b919050565b600067ffffffffffffffff821115620002f457620002f362000252565b5b620002ff8262000241565b9050602081019050919050565b60005b838110156200032c5780820151818401526020810190506200030f565b838111156200033c576000848401525b50505050565b6000620003596200035384620002d6565b620002b7565b9050828152602081018484840111156200037857620003776200023c565b5b620003858482856200030c565b509392505050565b600082601f830112620003a557620003a462000237565b5b8151620003b784826020860162000342565b91505092915050565b600067ffffffffffffffff821115620003de57620003dd62000252565b5b602082029050602081019050919050565b600080fd5b60006200040b6200040584620003c0565b620002b7565b90508083825260208201905060208402830185811115620004315762000430620003ef565b5b835b818110156200047f57805167ffffffffffffffff8111156200045a576200045962000237565b5b8086016200046989826200038d565b8552602085019450505060208101905062000433565b5050509392505050565b600082601f830112620004a157620004a062000237565b5b8151620004b3848260208601620003f4565b91505092915050565b60008060408385031215620004d657620004d56200022d565b5b600083015167ffffffffffffffff811115620004f757620004f662000232565b5b62000505858286016200038d565b925050602083015167ffffffffffffffff81111562000529576200052862000232565b5b620005378582860162000489565b9150509250929050565b7f4e487b7100000000000000000000000000000000000000000000000000000000600052603260045260246000fd5b7f4e487b7100000000000000000000000000000000000000000000000000000000600052601160045260246000fd5b6000819050919050565b6000620005b6826200059f565b91507fffffffffffffffffffffffffffffffffffffffffffffffffffffffffffffffff8203620005eb57620005ea62000570565b5b600182019050919050565b7f4e487b7100000000000000000000000000000000000000000000000000000000600052602160045260246000fd5b7f4e487b7100000000000000000000000000000000000000000000000000000000600052602260045260246000fd5b600060028204905060018216806200066d57607f821691505b60208210810362000683576200068262000625565b5b50919050565b6115ad80620006996000396000f3fe608060405234801561001057600080fd5b50600436106100cf5760003560e01c80633a47cb601161008c5780634a79d50c116100665780634a79d50c146101da5780634c44ff3e146101f8578063c19d93fb14610228578063df2d5ec714610246576100cf565b80633a47cb6014610196578063452ddecc146101a057806345d42651146101aa576100cf565b80630121b93f146100d4578063054bae88146100f057806306d2ad401461010c5780630a29024a1461013c5780632280043d1461015a5780632e4176cf14610178575b600080fd5b6100ee60048036038101906100e99190610fd5565b610277565b005b61010a60048036038101906101059190611060565b610457565b005b61012660048036038101906101219190611060565b6105d1565b6040516101339190611104565b60405180910390f35b6101446105f1565b604051610151919061112e565b60405180910390f35b6101626105fe565b60405161016f91906111e2565b60405180910390f35b61018061072b565b60405161018d9190611213565b60405180910390f35b61019e61074f565b005b6101a86109f0565b005b6101c460048036038101906101bf9190610fd5565b610aeb565b6040516101d1919061112e565b60405180910390f35b6101e2610ba0565b6040516101ef91906111e2565b60405180910390f35b610212600480360381019061020d9190610fd5565b610c2e565b60405161021f91906111e2565b60405180910390f35b610230610d6b565b60405161023d9190611276565b60405180910390f35b610260600480360381019061025b9190610fd5565b610d7e565b60405161026e929190611291565b60405180910390f35b6001600281111561028b5761028a61108d565b5b600460009054906101000a900460ff1660028111156102ad576102ac61108d565b5b146102b757600080fd5b600160028111156102cb576102ca61108d565b5b600360003373ffffffffffffffffffffffffffffffffffffffff1673ffffffffffffffffffffffffffffffffffffffff16815260200190815260200160002060009054906101000a900460ff16600281111561032a5761032961108d565b5b0361036a576040517f08c379a00000000000000000000000000000000000000000000000000000000081526004016103619061130d565b60405180910390fd5b60028054905081106103b1576040517f08c379a00000000000000000000000000000000000000000000000000000000081526004016103a890611379565b60405180910390fd5b600281815481106103c5576103c4611399565b5b906000526020600020906002020160010160008154809291906103e7906113f7565b91905055506002600360003373ffffffffffffffffffffffffffffffffffffffff1673ffffffffffffffffffffffffffffffffffffffff16815260200190815260200160002060006101000a81548160ff0219169083600281111561044f5761044e61108d565b5b021790555050565b6000600281111561046b5761046a61108d565b5b600460009054906101000a900460ff16600281111561048d5761048c61108d565b5b1461049757600080fd5b60008054906101000a900473ffffffffffffffffffffffffffffffffffffffff1673ffffffffffffffffffffffffffffffffffffffff163373ffffffffffffffffffffffffffffffffffffffff1614610525576040517f08c379a000000000000000000000000000000000000000000000000000000000815260040161051c9061148b565b60405180910390fd5b61052d610e3a565b81816000019073ffffffffffffffffffffffffffffffffffffffff16908173ffffffffffffffffffffffffffffffffffffffff16815250506001600360008473ffffffffffffffffffffffffffffffffffffffff1673ffffffffffffffffffffffffffffffffffffffff16815260200190815260200160002060006101000a81548160ff021916908360028111156105c8576105c761108d565b5b02179055505050565b60036020528060005260406000206000915054906101000a900460ff1681565b6000600280549050905090565b60606002808111156106135761061261108d565b5b600460009054906101000a900460ff1660028111156106355761063461108d565b5b03610677576040518060400160405280600881526020017f66696e69736865640000000000000000000000000000000000000000000000008152509050610728565b6001600281111561068b5761068a61108d565b5b600460009054906101000a900460ff1660028111156106ad576106ac61108d565b5b036106ef576040518060400160405280600b81526020017f696e2070726f67726573730000000000000000000000000000000000000000008152509050610728565b6040518060400160405280600b81526020017f6e6f74207374617274656400000000000000000000000000000000000000000081525090505b90565b60008054906101000a900473ffffffffffffffffffffffffffffffffffffffff1681565b600160028111156107635761076261108d565b5b600460009054906101000a900460ff1660028111156107855761078461108d565b5b1461078f57600080fd5b6002600460006101000a81548160ff021916908360028111156107b5576107b461108d565b5b021790555060005b6002805490508110156109ed57600080808390505b60028054905081101561084b5782600282815481106107f4576107f3611399565b5b906000526020600020906002020160010154111561083857600281815481106108205761081f611399565b5b90600052602060002090600202016001015492508391505b8080610843906113f7565b9150506107d2565b5060006002848154811061086257610861611399565b5b906000526020600020906002020160405180604001604052908160008201805461088b906114da565b80601f01602080910402602001604051908101604052809291908181526020018280546108b7906114da565b80156109045780601f106108d957610100808354040283529160200191610904565b820191906000526020600020905b8154815290600101906020018083116108e757829003601f168201915b5050505050815260200160018201548152505090506002828154811061092d5761092c611399565b5b90600052602060002090600202016002858154811061094f5761094e611399565b5b90600052602060002090600202016000820181600001908054610971906114da565b61097c929190610e6a565b5060018201548160010155905050806002838154811061099f5761099e611399565b5b906000526020600020906002020160008201518160000190805190602001906109c9929190610ef7565b506020820151816001015590505050505080806109e5906113f7565b9150506107bd565b50565b60006002811115610a0457610a0361108d565b5b600460009054906101000a900460ff166002811115610a2657610a2561108d565b5b14610a3057600080fd5b60008054906101000a900473ffffffffffffffffffffffffffffffffffffffff1673ffffffffffffffffffffffffffffffffffffffff163373ffffffffffffffffffffffffffffffffffffffff1614610abe576040517f08c379a0000000000000000000000000000000000000000000000000000000008152600401610ab59061148b565b60405180910390fd5b6001600460006101000a81548160ff02191690836002811115610ae457610ae361108d565b5b0217905550565b6000600280811115610b0057610aff61108d565b5b600460009054906101000a900460ff166002811115610b2257610b2161108d565b5b14610b2c57600080fd5b6002805490508210610b73576040517f08c379a0000000000000000000000000000000000000000000000000000000008152600401610b6a90611557565b60405180910390fd5b60028281548110610b8757610b86611399565b5b9060005260206000209060020201600101549050919050565b60018054610bad906114da565b80601f0160208091040260200160405190810160405280929190818152602001828054610bd9906114da565b8015610c265780601f10610bfb57610100808354040283529160200191610c26565b820191906000526020600020905b815481529060010190602001808311610c0957829003601f168201915b505050505081565b6060600280811115610c4357610c4261108d565b5b600460009054906101000a900460ff166002811115610c6557610c6461108d565b5b14610c6f57600080fd5b6002805490508210610cb6576040517f08c379a0000000000000000000000000000000000000000000000000000000008152600401610cad90611557565b60405180910390fd5b60028281548110610cca57610cc9611399565b5b90600052602060002090600202016000018054610ce6906114da565b80601f0160208091040260200160405190810160405280929190818152602001828054610d12906114da565b8015610d5f5780601f10610d3457610100808354040283529160200191610d5f565b820191906000526020600020905b815481529060010190602001808311610d4257829003601f168201915b50505050509050919050565b600460009054906101000a900460ff1681565b60028181548110610d8e57600080fd5b9060005260206000209060020201600091509050806000018054610db1906114da565b80601f0160208091040260200160405190810160405280929190818152602001828054610ddd906114da565b8015610e2a5780601f10610dff57610100808354040283529160200191610e2a565b820191906000526020600020905b815481529060010190602001808311610e0d57829003601f168201915b5050505050908060010154905082565b6040518060400160405280600073ffffffffffffffffffffffffffffffffffffffff168152602001600081525090565b828054610e76906114da565b90600052602060002090601f016020900481019282610e985760008555610ee6565b82601f10610ea95780548555610ee6565b82800160010185558215610ee657600052602060002091601f016020900482015b82811115610ee5578254825591600101919060010190610eca565b5b509050610ef39190610f7d565b5090565b828054610f03906114da565b90600052602060002090601f016020900481019282610f255760008555610f6c565b82601f10610f3e57805160ff1916838001178555610f6c565b82800160010185558215610f6c579182015b82811115610f6b578251825591602001919060010190610f50565b5b509050610f799190610f7d565b5090565b5b80821115610f96576000816000905550600101610f7e565b5090565b600080fd5b6000819050919050565b610fb281610f9f565b8114610fbd57600080fd5b50565b600081359050610fcf81610fa9565b92915050565b600060208284031215610feb57610fea610f9a565b5b6000610ff984828501610fc0565b91505092915050565b600073ffffffffffffffffffffffffffffffffffffffff82169050919050565b600061102d82611002565b9050919050565b61103d81611022565b811461104857600080fd5b50565b60008135905061105a81611034565b92915050565b60006020828403121561107657611075610f9a565b5b60006110848482850161104b565b91505092915050565b7f4e487b7100000000000000000000000000000000000000000000000000000000600052602160045260246000fd5b600381106110cd576110cc61108d565b5b50565b60008190506110de826110bc565b919050565b60006110ee826110d0565b9050919050565b6110fe816110e3565b82525050565b600060208201905061111960008301846110f5565b92915050565b61112881610f9f565b82525050565b6000602082019050611143600083018461111f565b92915050565b600081519050919050565b600082825260208201905092915050565b60005b83811015611183578082015181840152602081019050611168565b83811115611192576000848401525b50505050565b6000601f19601f8301169050919050565b60006111b482611149565b6111be8185611154565b93506111ce818560208601611165565b6111d781611198565b840191505092915050565b600060208201905081810360008301526111fc81846111a9565b905092915050565b61120d81611022565b82525050565b60006020820190506112286000830184611204565b92915050565b6003811061123f5761123e61108d565b5b50565b60008190506112508261122e565b919050565b600061126082611242565b9050919050565b61127081611255565b82525050565b600060208201905061128b6000830184611267565b92915050565b600060408201905081810360008301526112ab81856111a9565b90506112ba602083018461111f565b9392505050565b7f5468697320706572736f6e20616c726561647920766f7465642e000000000000600082015250565b60006112f7601a83611154565b9150611302826112c1565b602082019050919050565b60006020820190508181036000830152611326816112ea565b9050919050565b7f5468657265206973206e6f2063686f69636520666f7220746869730000000000600082015250565b6000611363601b83611154565b915061136e8261132d565b602082019050919050565b6000602082019050818103600083015261139281611356565b9050919050565b7f4e487b7100000000000000000000000000000000000000000000000000000000600052603260045260246000fd5b7f4e487b7100000000000000000000000000000000000000000000000000000000600052601160045260246000fd5b600061140282610f9f565b91507fffffffffffffffffffffffffffffffffffffffffffffffffffffffffffffffff8203611434576114336113c8565b5b600182019050919050565b7f4f6e6c7920746865206368616972706572736f6e20697320616c6c6f7765642e600082015250565b6000611475602083611154565b91506114808261143f565b602082019050919050565b600060208201905081810360008301526114a481611468565b9050919050565b7f4e487b7100000000000000000000000000000000000000000000000000000000600052602260045260246000fd5b600060028204905060018216806114f257607f821691505b602082108103611505576115046114ab565b5b50919050565b7f43616e64696461746520696e646578206f7574206f662072616e676500000000600082015250565b6000611541601c83611154565b915061154c8261150b565b602082019050919050565b6000602082019050818103600083015261157081611534565b905091905056fea2646970667358221220d2bb9d9dd0c80b62310750e85be5a3a905f91a25493b70f42317fc5f07ee8ee364736f6c634300080d0033",
  "immutableReferences": {},
  "source": "// SPDX-License-Identifier: GPL-3.0\npragma solidity >=0.7.0 <0.9.0;\n\ncontract Ballot {\n    // * struct types\n    struct Voter {\n        address identifier;\n        uint choice;\n    }\n    struct Candidate {\n        string name;\n        uint numVotes;\n    }\n\n    // * public variables\n    address public chairperson;\n    string public title;\n    Candidate[] public candidatesList;\n\n    enum VoterState {NotGranted, Granted, Voted}\n    mapping(address => VoterState) public alreadyVoted;\n\n    enum VotingState {Registered, Progress, Completed}\n    VotingState public state;\n\n    // * modifiers\n    // only chairperson can grant voters\n    modifier isChairperson(){\n        require(msg.sender == chairperson, \"Only the chairperson is allowed.\");\n        _;\n    }\n    // check for a valid voter\n    modifier canVote(){\n        require(alreadyVoted[msg.sender] != VoterState.Granted, \"This person already voted.\");\n        _;\n    }\n    // check if state is in progress\n    modifier inProgress(){\n        require(state == VotingState.Progress);\n        _;\n    }\n    // check if not started\n    modifier notStarted(){\n        require(state == VotingState.Registered);\n        _;\n    }\n    modifier finished() {\n        require(state == VotingState.Completed);\n        _;\n    }\n\n    // * Constructor\n    constructor(string memory _title, string[] memory _candidateList){\n        title = _title;\n        chairperson = msg.sender;\n        for(uint i = 0; i < _candidateList.length; i++){\n            candidatesList.push(Candidate({\n                name: _candidateList[i],\n                numVotes: 0\n            }));\n        }\n        state = VotingState.Registered;\n    }\n    // * functionalities for chairperson\n    function grantVoter(address _voter) public notStarted isChairperson {\n        Voter memory v;\n        v.identifier = _voter;\n        alreadyVoted[_voter] = VoterState.Granted;\n    }\n\n    function startBallot() public notStarted isChairperson {\n        state = VotingState.Progress;\n    }\n\n    function endBallot() public inProgress {\n        state = VotingState.Completed;\n\n        // * sort the candidates\n\n        for (uint i = 0; i < candidatesList.length; i++) {\n            uint max = 0;\n            uint id;\n            for(uint j = i; j < candidatesList.length; j++) {\n                if(candidatesList[j].numVotes > max) {\n                    max = candidatesList[j].numVotes;\n                    id = i;\n                }\n            }\n\n            Candidate memory aux = candidatesList[i];\n            candidatesList[i] = candidatesList[id];\n            candidatesList[id] = aux;\n        }\n    }\n\n    // * functionalities for \n    function vote(uint _choice) public inProgress canVote {\n        // * check if the choice is in the candidacy list\n        require(_choice < candidatesList.length, \"There is no choice for this\");\n        // * add vote\n        candidatesList[_choice].numVotes++;\n        alreadyVoted[msg.sender] = VoterState.Voted;\n    }\n\n    function electionState() public view returns (string memory) {\n        if (state == VotingState.Completed)\n            return \"finished\";\n        if (state == VotingState.Progress)\n            return \"in progress\";\n        else\n            return \"not started\";\n    }\n\n    function candidatesNo() public view returns (uint no_) {\n        no_ = candidatesList.length;\n    }\n\n    // * at the end of balloot\n\n    function nthCandidate(uint _id) public view finished returns (string memory) {\n        require(_id < candidatesList.length, \"Candidate index out of range\");\n        return candidatesList[_id].name;\n    }\n\n    function nthNoVotes(uint _id) public view finished returns (uint) {\n        require(_id < candidatesList.length, \"Candidate index out of range\");\n        return candidatesList[_id].numVotes;\n    }\n}",
  "sourcePath": "/home/alex/Documents/university/blockchain/Voting-System---Blockchain/contracts/Ballot.sol",
  "compiler": {
    "name": "solc",
    "version": "0.8.13+commit.abaa5c0e.Emscripten.clang"
  },
  "schemaVersion": "3.4.7",
  "updatedAt": "2022-04-18T11:40:34.878Z",
  "networkType": "ethereum",
  "devdoc": {
    "kind": "dev",
    "methods": {},
    "version": 1
  },
  "userdoc": {
    "kind": "user",
    "methods": {},
    "version": 1
  }
}